:100000000C9472000C9486000C9486000C9486006C
:100010000C9486000C9486000C9486000C94860048
:100020000C9486000C9486000C9486000C94860038
:100030000C9486000C9486000C9486000C94860028
:100040000C9486000C9486000C9486000C94860018
:100050000C9486000C9486000C9486000C94860008
:100060000C9486000C9486000C9486000C948600F8
:100070000C9486000C9486000C9486000C948600E8
:100080000C9486000C9486000C9486000C948600D8
:100090000C9486000C9486000C9486000C948600C8
:1000A0000C9486000C9486000C9486000C948600B8
:1000B0000C9486000C9486000C9486000C948600A8
:1000C0000C9486000C9486000C9486000C94860098
:1000D0000C9486000C9486000C9486000C94860088
:1000E0000C94860011241FBECFEFD1E2DEBFCDBF3E
:1000F00000E00CBF22E0A0E0B2E001C01D92A630FB
:10010000B207E1F70E94B8000C9408020C940000BA
:10011000CF93DF9300D01F92CDB7DEB769837A8388
:100120008B839C8389819A81AB81BC8124E0880F79
:10013000991FAA1FBB1F2A95D1F789839A83AB8386
:10014000BC8389819A81AB81BC81892B8A2B8B2BC3
:1001500041F089819A81AB81BC810197A109B109E4
:10016000ECCF0F900F900F900F90DF91CF910895EB
:10017000279AC12CD12C76012F9AA7019601C7018D
:10018000B6010E94DE000E944A010E9488002F985A
:10019000C701B6010E944A010E94880020E030E0B9
:1001A00040E85FE3C701B6010E94DE006B017C01FD
:1001B00081E790E00E94CA01DFCF5058BB27AA27F1
:1001C0000E94F5000C9490010E94820138F00E9478
:1001D000890120F039F49F3F19F426F40C947F0133
:1001E0000EF4E095E7FB0C947901E92F0E94A10140
:1001F00058F3BA17620773078407950720F079F45C
:10020000A6F50C94C3010EF4E0950B2EBA2FA02D89
:100210000B01B90190010C01CA01A0011124FF27B3
:10022000591B99F0593F50F4503E68F11A16F040AE
:10023000A22F232F342F4427585FF3CF46953795AD
:100240002795A795F0405395C9F77EF41F16BA0B72
:10025000620B730B840BBAF09150A1F0FF0FBB1F20
:10026000661F771F881FC2F70EC0BA0F621F731F69
:10027000841F48F4879577956795B795F7959E3FC6
:1002800008F0B0CF9395880F08F09927EE0F979557
:10029000879508950E94A90188F09F5798F0B92F7B
:1002A0009927B751B0F0E1F0660F771F881F991FAB
:1002B0001AF0BA95C9F714C0B13091F00E94C30189
:1002C000B1E008950C94C301672F782F8827B85F99
:1002D00039F0B93FCCF3869577956795B395D9F703
:1002E0003EF490958095709561957F4F8F4F9F4F0D
:1002F000089597F99F6780E870E060E008959FEFA8
:1003000080EC089500240A941616170618060906AC
:10031000089500240A94121613061406050608957B
:10032000092E0394000C11F4882352F0BB0F40F403
:10033000BF2B11F460FF04C06F5F7F4F8F4F9F4F43
:10034000089557FD9058440F551F59F05F3F71F0C5
:100350004795880F97FB991F61F09F3F79F087952C
:100360000895121613061406551FF2CF4695F1DFB5
:1003700008C0161617061806991FF1CF8695710545
:10038000610508940895E894BB2766277727CB0179
:1003900097F9089560910202709103020C94D001C4
:1003A0000F931F93CF93DF93FB01238121FD03C0A4
:1003B0008FEF9FEF28C022FF16C04681578124810E
:1003C00035814217530744F4A081B1819D012F5F0D
:1003D0003F4F318320838C93268137812F5F3F4F9E
:1003E0003783268310C0EB01092F182F0084F18575
:1003F000E02D1995892BE1F68E819F8101969F83CF
:100400008E83812F902FDF91CF911F910F910895AF
:04041000F894FFCF8E
:00000001FF
